:020000020000FC
:020000001FC11E
:020010003EC1EF
:0200400046C1B7
:0A0200003F065B4F666D7D077F6FC0
:1002400008E00EBF0FEF0DBF1127222733274427E9
:1002500066270EE104B9002705B90FE70AB90027A0
:100260000BB90CE007B903E008B976B102E00093DE
:10027000680003E000936C00002704BD05E005BDA5
:1002800004E606BD01E000936E007894FFCF0F9363
:100290008F939F937F930FB70F9386B1972F9827D4
:1002A000072F092301FF03C063956F7004C000FF8F
:1002B00002C06A956F70062F000F0E7105B9782F76
:1002C0000F910FBF7F919F918F910F9118950F9371
:1002D0005F930FB70F9304E606BD429843984423FB
:1002E00011F4012F01C0022FF2E0E0E0E00F00273F
:1002F000F01F54915BB9442319F4429A41E002C0C3
:10030000439A44273395343149F4332713951A30EF
:1003100028F011272395263008F022270F910FBFD0
:060320005F910F9118959A
:00000001FF
